{
  "_format": "hh-sol-artifact-1",
  "contractName": "InternalSwap",
  "sourceName": "contracts/InternalSwap.sol",
  "abi": [
    {
      "inputs": [
        {
          "internalType": "address",
          "name": "_ownerOne",
          "type": "address"
        },
        {
          "internalType": "address",
          "name": "_ownerTwo",
          "type": "address"
        },
        {
          "internalType": "uint256",
          "name": "_assetTypeOne",
          "type": "uint256"
        },
        {
          "internalType": "uint256",
          "name": "_assetTypeTwo",
          "type": "uint256"
        },
        {
          "internalType": "uint256",
          "name": "_assetAmountOne",
          "type": "uint256"
        },
        {
          "internalType": "uint256",
          "name": "_assetAmountTwo",
          "type": "uint256"
        },
        {
          "internalType": "uint256",
          "name": "_assetIdOne",
          "type": "uint256"
        },
        {
          "internalType": "uint256",
          "name": "_assetIdTwo",
          "type": "uint256"
        },
        {
          "internalType": "address",
          "name": "_assetContractOne",
          "type": "address"
        },
        {
          "internalType": "address",
          "name": "_assetContractTwo",
          "type": "address"
        },
        {
          "internalType": "uint256",
          "name": "_dealId",
          "type": "uint256"
        }
      ],
      "stateMutability": "nonpayable",
      "type": "constructor"
    },
    {
      "anonymous": false,
      "inputs": [
        {
          "indexed": true,
          "internalType": "address",
          "name": "from",
          "type": "address"
        },
        {
          "indexed": true,
          "internalType": "address",
          "name": "to",
          "type": "address"
        },
        {
          "indexed": false,
          "internalType": "uint256",
          "name": "assetType",
          "type": "uint256"
        },
        {
          "indexed": false,
          "internalType": "uint256",
          "name": "amount",
          "type": "uint256"
        },
        {
          "indexed": false,
          "internalType": "uint256",
          "name": "tokenId",
          "type": "uint256"
        },
        {
          "indexed": false,
          "internalType": "uint256",
          "name": "dealId",
          "type": "uint256"
        }
      ],
      "name": "AssetSwapped",
      "type": "event"
    },
    {
      "anonymous": false,
      "inputs": [
        {
          "indexed": true,
          "internalType": "uint256",
          "name": "dealId",
          "type": "uint256"
        }
      ],
      "name": "DealCancelled",
      "type": "event"
    },
    {
      "anonymous": false,
      "inputs": [
        {
          "indexed": true,
          "internalType": "uint256",
          "name": "dealId",
          "type": "uint256"
        }
      ],
      "name": "DealCompleted",
      "type": "event"
    },
    {
      "inputs": [],
      "name": "cancelDeal",
      "outputs": [],
      "stateMutability": "nonpayable",
      "type": "function"
    },
    {
      "inputs": [],
      "name": "getOwnerOne",
      "outputs": [
        {
          "internalType": "address",
          "name": "",
          "type": "address"
        }
      ],
      "stateMutability": "view",
      "type": "function"
    },
    {
      "inputs": [],
      "name": "getOwnerTwo",
      "outputs": [
        {
          "internalType": "address",
          "name": "",
          "type": "address"
        }
      ],
      "stateMutability": "view",
      "type": "function"
    },
    {
      "inputs": [],
      "name": "getSwapCancelled",
      "outputs": [
        {
          "internalType": "bool",
          "name": "",
          "type": "bool"
        }
      ],
      "stateMutability": "view",
      "type": "function"
    },
    {
      "inputs": [],
      "name": "getSwapCompleted",
      "outputs": [
        {
          "internalType": "bool",
          "name": "",
          "type": "bool"
        }
      ],
      "stateMutability": "view",
      "type": "function"
    },
    {
      "inputs": [
        {
          "internalType": "address",
          "name": "",
          "type": "address"
        },
        {
          "internalType": "address",
          "name": "",
          "type": "address"
        },
        {
          "internalType": "uint256",
          "name": "",
          "type": "uint256"
        },
        {
          "internalType": "bytes",
          "name": "",
          "type": "bytes"
        }
      ],
      "name": "onERC721Received",
      "outputs": [
        {
          "internalType": "bytes4",
          "name": "",
          "type": "bytes4"
        }
      ],
      "stateMutability": "nonpayable",
      "type": "function"
    },
    {
      "inputs": [],
      "name": "receiveERC20Tokens",
      "outputs": [],
      "stateMutability": "nonpayable",
      "type": "function"
    },
    {
      "inputs": [],
      "name": "receiveEther",
      "outputs": [],
      "stateMutability": "payable",
      "type": "function"
    }
  ],
  "bytecode": "0x60806040523480156200001157600080fd5b50604051620025843803806200258483398181016040528101906200003791906200021f565b8a6000806101000a81548173ffffffffffffffffffffffffffffffffffffffff021916908373ffffffffffffffffffffffffffffffffffffffff16021790555089600160006101000a81548173ffffffffffffffffffffffffffffffffffffffff021916908373ffffffffffffffffffffffffffffffffffffffff16021790555088600281905550876003819055508660048190555085600581905550846006819055508360078190555082600860006101000a81548173ffffffffffffffffffffffffffffffffffffffff021916908373ffffffffffffffffffffffffffffffffffffffff16021790555081600960006101000a81548173ffffffffffffffffffffffffffffffffffffffff021916908373ffffffffffffffffffffffffffffffffffffffff160217905550600a54905050505050505050505050506200032c565b600080fd5b600073ffffffffffffffffffffffffffffffffffffffff82169050919050565b6000620001ac826200017f565b9050919050565b620001be816200019f565b8114620001ca57600080fd5b50565b600081519050620001de81620001b3565b92915050565b6000819050919050565b620001f981620001e4565b81146200020557600080fd5b50565b6000815190506200021981620001ee565b92915050565b60008060008060008060008060008060006101608c8e0312156200024857620002476200017a565b5b6000620002588e828f01620001cd565b9b505060206200026b8e828f01620001cd565b9a505060406200027e8e828f0162000208565b9950506060620002918e828f0162000208565b9850506080620002a48e828f0162000208565b97505060a0620002b78e828f0162000208565b96505060c0620002ca8e828f0162000208565b95505060e0620002dd8e828f0162000208565b945050610100620002f18e828f01620001cd565b935050610120620003058e828f01620001cd565b925050610140620003198e828f0162000208565b9150509295989b509295989b9093969950565b612248806200033c6000396000f3fe60806040526004361061007b5760003560e01c8063925c792c1161004e578063925c792c146101165780639b1e255f14610141578063a3912ec81461016c578063d90f150b146101765761007b565b8063150b7a021461008057806329e31644146100bd5780637608567c146100d45780638581b494146100eb575b600080fd5b34801561008c57600080fd5b506100a760048036038101906100a2919061178c565b6101a1565b6040516100b4919061184f565b60405180910390f35b3480156100c957600080fd5b506100d2610506565b005b3480156100e057600080fd5b506100e96107bf565b005b3480156100f757600080fd5b50610100610d7a565b60405161010d9190611879565b60405180910390f35b34801561012257600080fd5b5061012b610da3565b60405161013891906118af565b60405180910390f35b34801561014d57600080fd5b50610156610dba565b60405161016391906118af565b60405180910390f35b610174610dd1565b005b34801561018257600080fd5b5061018b6111e7565b6040516101989190611879565b60405180910390f35b6000600960169054906101000a900460ff16156101f3576040517f08c379a00000000000000000000000000000000000000000000000000000000081526004016101ea90611927565b60405180910390fd5b600860009054906101000a900473ffffffffffffffffffffffffffffffffffffffff1673ffffffffffffffffffffffffffffffffffffffff163373ffffffffffffffffffffffffffffffffffffffff16148061029c5750600960009054906101000a900473ffffffffffffffffffffffffffffffffffffffff1673ffffffffffffffffffffffffffffffffffffffff163373ffffffffffffffffffffffffffffffffffffffff16145b6102db576040517f08c379a00000000000000000000000000000000000000000000000000000000081526004016102d290611993565b60405180910390fd5b600860009054906101000a900473ffffffffffffffffffffffffffffffffffffffff1673ffffffffffffffffffffffffffffffffffffffff163373ffffffffffffffffffffffffffffffffffffffff16036103e457600960149054906101000a900460ff1615610380576040517f08c379a0000000000000000000000000000000000000000000000000000000008152600401610377906119ff565b60405180910390fd5b60028054146103c4576040517f08c379a00000000000000000000000000000000000000000000000000000000081526004016103bb90611a6b565b60405180910390fd5b6001600960146101000a81548160ff0219169083151502179055506104eb565b600960009054906101000a900473ffffffffffffffffffffffffffffffffffffffff1673ffffffffffffffffffffffffffffffffffffffff163373ffffffffffffffffffffffffffffffffffffffff16036104ea57600960159054906101000a900460ff1615610489576040517f08c379a000000000000000000000000000000000000000000000000000000000815260040161048090611ad7565b60405180910390fd5b6002600354146104ce576040517f08c379a00000000000000000000000000000000000000000000000000000000081526004016104c590611b43565b60405180910390fd5b6001600960156101000a81548160ff0219169083151502179055505b5b6104f3611211565b63150b7a0260e01b905095945050505050565b60008054906101000a900473ffffffffffffffffffffffffffffffffffffffff1673ffffffffffffffffffffffffffffffffffffffff163373ffffffffffffffffffffffffffffffffffffffff1614806105ad5750600160009054906101000a900473ffffffffffffffffffffffffffffffffffffffff1673ffffffffffffffffffffffffffffffffffffffff163373ffffffffffffffffffffffffffffffffffffffff16145b6105ec576040517f08c379a00000000000000000000000000000000000000000000000000000000081526004016105e390611bd5565b60405180910390fd5b600960169054906101000a900460ff161561063c576040517f08c379a000000000000000000000000000000000000000000000000000000000815260040161063390611c41565b60405180910390fd5b600960149054906101000a900460ff16156106c8576106c760008054906101000a900473ffffffffffffffffffffffffffffffffffffffff1660008054906101000a900473ffffffffffffffffffffffffffffffffffffffff16600254600454600654600860009054906101000a900473ffffffffffffffffffffffffffffffffffffffff1661137b565b5b600960159054906101000a900460ff161561075857610757600160009054906101000a900473ffffffffffffffffffffffffffffffffffffffff16600160009054906101000a900473ffffffffffffffffffffffffffffffffffffffff16600354600554600754600960009054906101000a900473ffffffffffffffffffffffffffffffffffffffff1661137b565b5b6001600960166101000a81548160ff0219169083151502179055506001600960176101000a81548160ff021916908315150217905550600a547f31b0c01e8429f81903c3f8adc204767b8efa7cfca91a00f3b4bb40ce63c8a20660405160405180910390a2565b60008054906101000a900473ffffffffffffffffffffffffffffffffffffffff1673ffffffffffffffffffffffffffffffffffffffff163373ffffffffffffffffffffffffffffffffffffffff1614806108665750600160009054906101000a900473ffffffffffffffffffffffffffffffffffffffff1673ffffffffffffffffffffffffffffffffffffffff163373ffffffffffffffffffffffffffffffffffffffff16145b6108a5576040517f08c379a000000000000000000000000000000000000000000000000000000000815260040161089c90611bd5565b60405180910390fd5b600960169054906101000a900460ff16156108f5576040517f08c379a00000000000000000000000000000000000000000000000000000000081526004016108ec90611c41565b60405180910390fd5b60008060009054906101000a900473ffffffffffffffffffffffffffffffffffffffff1673ffffffffffffffffffffffffffffffffffffffff163373ffffffffffffffffffffffffffffffffffffffff161461097357600960009054906101000a900473ffffffffffffffffffffffffffffffffffffffff16610997565b600860009054906101000a900473ffffffffffffffffffffffffffffffffffffffff165b9050600081905060008054906101000a900473ffffffffffffffffffffffffffffffffffffffff1673ffffffffffffffffffffffffffffffffffffffff163373ffffffffffffffffffffffffffffffffffffffff1603610b6757600960149054906101000a900460ff1615610a41576040517f08c379a0000000000000000000000000000000000000000000000000000000008152600401610a38906119ff565b60405180910390fd5b600160025414610a86576040517f08c379a0000000000000000000000000000000000000000000000000000000008152600401610a7d90611cad565b60405180910390fd5b8073ffffffffffffffffffffffffffffffffffffffff166323b872dd33306004546040518463ffffffff1660e01b8152600401610ac593929190611cdc565b6020604051808303816000875af1158015610ae4573d6000803e3d6000fd5b505050506040513d601f19601f82011682018060405250810190610b089190611d3f565b610b47576040517f08c379a0000000000000000000000000000000000000000000000000000000008152600401610b3e90611db8565b60405180910390fd5b6001600960146101000a81548160ff021916908315150217905550610d6e565b600160009054906101000a900473ffffffffffffffffffffffffffffffffffffffff1673ffffffffffffffffffffffffffffffffffffffff163373ffffffffffffffffffffffffffffffffffffffff1603610d3257600960159054906101000a900460ff1615610c0c576040517f08c379a0000000000000000000000000000000000000000000000000000000008152600401610c0390611ad7565b60405180910390fd5b600160035414610c51576040517f08c379a0000000000000000000000000000000000000000000000000000000008152600401610c4890611e24565b60405180910390fd5b8073ffffffffffffffffffffffffffffffffffffffff166323b872dd33306005546040518463ffffffff1660e01b8152600401610c9093929190611cdc565b6020604051808303816000875af1158015610caf573d6000803e3d6000fd5b505050506040513d601f19601f82011682018060405250810190610cd39190611d3f565b610d12576040517f08c379a0000000000000000000000000000000000000000000000000000000008152600401610d0990611db8565b60405180910390fd5b6001600960156101000a81548160ff021916908315150217905550610d6d565b6040517f08c379a0000000000000000000000000000000000000000000000000000000008152600401610d6490611e90565b60405180910390fd5b5b610d76611211565b5050565b60008060009054906101000a900473ffffffffffffffffffffffffffffffffffffffff16905090565b6000600960169054906101000a900460ff16905090565b6000600960179054906101000a900460ff16905090565b60008054906101000a900473ffffffffffffffffffffffffffffffffffffffff1673ffffffffffffffffffffffffffffffffffffffff163373ffffffffffffffffffffffffffffffffffffffff161480610e785750600160009054906101000a900473ffffffffffffffffffffffffffffffffffffffff1673ffffffffffffffffffffffffffffffffffffffff163373ffffffffffffffffffffffffffffffffffffffff16145b610eb7576040517f08c379a0000000000000000000000000000000000000000000000000000000008152600401610eae90611bd5565b60405180910390fd5b600960169054906101000a900460ff1615610f07576040517f08c379a0000000000000000000000000000000000000000000000000000000008152600401610efe90611c41565b60405180910390fd5b60008054906101000a900473ffffffffffffffffffffffffffffffffffffffff1673ffffffffffffffffffffffffffffffffffffffff163373ffffffffffffffffffffffffffffffffffffffff160361105357600960149054906101000a900460ff1615610faa576040517f08c379a0000000000000000000000000000000000000000000000000000000008152600401610fa1906119ff565b60405180910390fd5b600060025414610fef576040517f08c379a0000000000000000000000000000000000000000000000000000000008152600401610fe690611efc565b60405180910390fd5b3460045414611033576040517f08c379a000000000000000000000000000000000000000000000000000000000815260040161102a90611f68565b60405180910390fd5b6001600960146101000a81548160ff0219169083151502179055506111dd565b600160009054906101000a900473ffffffffffffffffffffffffffffffffffffffff1673ffffffffffffffffffffffffffffffffffffffff163373ffffffffffffffffffffffffffffffffffffffff16036111a157600960159054906101000a900460ff16156110f8576040517f08c379a00000000000000000000000000000000000000000000000000000000081526004016110ef90611ad7565b60405180910390fd5b60006003541461113d576040517f08c379a000000000000000000000000000000000000000000000000000000000815260040161113490611fd4565b60405180910390fd5b3460055414611181576040517f08c379a000000000000000000000000000000000000000000000000000000000815260040161117890611f68565b60405180910390fd5b6001600960156101000a81548160ff0219169083151502179055506111dc565b6040517f08c379a00000000000000000000000000000000000000000000000000000000081526004016111d390611e90565b60405180910390fd5b5b6111e5611211565b565b6000600160009054906101000a900473ffffffffffffffffffffffffffffffffffffffff16905090565b600960149054906101000a900460ff16158061123a5750600960159054906101000a900460ff16155b611379576112b660008054906101000a900473ffffffffffffffffffffffffffffffffffffffff16600160009054906101000a900473ffffffffffffffffffffffffffffffffffffffff16600254600454600654600860009054906101000a900473ffffffffffffffffffffffffffffffffffffffff1661137b565b61132e600160009054906101000a900473ffffffffffffffffffffffffffffffffffffffff1660008054906101000a900473ffffffffffffffffffffffffffffffffffffffff16600354600554600754600960009054906101000a900473ffffffffffffffffffffffffffffffffffffffff1661137b565b6001600960166101000a81548160ff021916908315150217905550600a547fe70f0403e69c896bbcf61b8ca0224ab04d6de1ade440bc896049efe6fe4e073160405160405180910390a25b565b600084036113cf578473ffffffffffffffffffffffffffffffffffffffff166108fc849081150290604051600060405180830381858888f193505050501580156113c9573d6000803e3d6000fd5b50611614565b6001840361155b576000819050838173ffffffffffffffffffffffffffffffffffffffff166370a08231306040518263ffffffff1660e01b81526004016114169190611879565b602060405180830381865afa158015611433573d6000803e3d6000fd5b505050506040513d601f19601f820116820180604052508101906114579190612009565b1015611498576040517f08c379a000000000000000000000000000000000000000000000000000000000815260040161148f90612082565b60405180910390fd5b8073ffffffffffffffffffffffffffffffffffffffff1663a9059cbb87866040518363ffffffff1660e01b81526004016114d3929190612101565b6020604051808303816000875af11580156114f2573d6000803e3d6000fd5b505050506040513d601f19601f820116820180604052508101906115169190611d3f565b611555576040517f08c379a000000000000000000000000000000000000000000000000000000000815260040161154c90611db8565b60405180910390fd5b50611613565b600284036115d7578073ffffffffffffffffffffffffffffffffffffffff166342842e0e3087856040518463ffffffff1660e01b81526004016115a09392919061212a565b600060405180830381600087803b1580156115ba57600080fd5b505af11580156115ce573d6000803e3d6000fd5b50505050611612565b6040517f08c379a0000000000000000000000000000000000000000000000000000000008152600401611609906121ad565b60405180910390fd5b5b5b8473ffffffffffffffffffffffffffffffffffffffff168673ffffffffffffffffffffffffffffffffffffffff167f392cc20b2a43970edd9f1858f37b4e6a544d6bd8d01d9c21942bd9d37fa60ac1868686600a5460405161167994939291906121cd565b60405180910390a3505050505050565b600080fd5b600080fd5b600073ffffffffffffffffffffffffffffffffffffffff82169050919050565b60006116be82611693565b9050919050565b6116ce816116b3565b81146116d957600080fd5b50565b6000813590506116eb816116c5565b92915050565b6000819050919050565b611704816116f1565b811461170f57600080fd5b50565b600081359050611721816116fb565b92915050565b600080fd5b600080fd5b600080fd5b60008083601f84011261174c5761174b611727565b5b8235905067ffffffffffffffff8111156117695761176861172c565b5b60208301915083600182028301111561178557611784611731565b5b9250929050565b6000806000806000608086880312156117a8576117a7611689565b5b60006117b6888289016116dc565b95505060206117c7888289016116dc565b94505060406117d888828901611712565b935050606086013567ffffffffffffffff8111156117f9576117f861168e565b5b61180588828901611736565b92509250509295509295909350565b60007fffffffff0000000000000000000000000000000000000000000000000000000082169050919050565b61184981611814565b82525050565b60006020820190506118646000830184611840565b92915050565b611873816116b3565b82525050565b600060208201905061188e600083018461186a565b92915050565b60008115159050919050565b6118a981611894565b82525050565b60006020820190506118c460008301846118a0565b92915050565b600082825260208201905092915050565b7f5377617020697320616c726561647920636f6d706c6574656400000000000000600082015250565b60006119116019836118ca565b915061191c826118db565b602082019050919050565b6000602082019050818103600083015261194081611904565b9050919050565b7f496e76616c6964204e465420636f6e7472616374207265636569766564000000600082015250565b600061197d601d836118ca565b915061198882611947565b602082019050919050565b600060208201905081810360008301526119ac81611970565b9050919050565b7f4173736574204f6e6520616c7265616479207265636569766564000000000000600082015250565b60006119e9601a836118ca565b91506119f4826119b3565b602082019050919050565b60006020820190508181036000830152611a18816119dc565b9050919050565b7f4578706563746564204e4654206f66204173736574204f6e6500000000000000600082015250565b6000611a556019836118ca565b9150611a6082611a1f565b602082019050919050565b60006020820190508181036000830152611a8481611a48565b9050919050565b7f41737365742054776f20616c7265616479207265636569766564000000000000600082015250565b6000611ac1601a836118ca565b9150611acc82611a8b565b602082019050919050565b60006020820190508181036000830152611af081611ab4565b9050919050565b7f4578706563746564204e4654206f662041737365742054776f00000000000000600082015250565b6000611b2d6019836118ca565b9150611b3882611af7565b602082019050919050565b60006020820190508181036000830152611b5c81611b20565b9050919050565b7f4f6e6c79206f776e6572732063616e2063616c6c20746869732066756e63746960008201527f6f6e000000000000000000000000000000000000000000000000000000000000602082015250565b6000611bbf6022836118ca565b9150611bca82611b63565b604082019050919050565b60006020820190508181036000830152611bee81611bb2565b9050919050565b7f5377617020616c726561647920636f6d706c6574656400000000000000000000600082015250565b6000611c2b6016836118ca565b9150611c3682611bf5565b602082019050919050565b60006020820190508181036000830152611c5a81611c1e565b9050919050565b7f4578706563746564204552433230206f66204173736574204f6e650000000000600082015250565b6000611c97601b836118ca565b9150611ca282611c61565b602082019050919050565b60006020820190508181036000830152611cc681611c8a565b9050919050565b611cd6816116f1565b82525050565b6000606082019050611cf1600083018661186a565b611cfe602083018561186a565b611d0b6040830184611ccd565b949350505050565b611d1c81611894565b8114611d2757600080fd5b50565b600081519050611d3981611d13565b92915050565b600060208284031215611d5557611d54611689565b5b6000611d6384828501611d2a565b91505092915050565b7f546f6b656e207472616e73666572206661696c65640000000000000000000000600082015250565b6000611da26015836118ca565b9150611dad82611d6c565b602082019050919050565b60006020820190508181036000830152611dd181611d95565b9050919050565b7f4578706563746564204552433230206f662041737365742054776f0000000000600082015250565b6000611e0e601b836118ca565b9150611e1982611dd8565b602082019050919050565b60006020820190508181036000830152611e3d81611e01565b9050919050565b7f496e76616c69642073656e646572000000000000000000000000000000000000600082015250565b6000611e7a600e836118ca565b9150611e8582611e44565b602082019050919050565b60006020820190508181036000830152611ea981611e6d565b9050919050565b7f4173736574204f6e65206973206e6f7420457468657200000000000000000000600082015250565b6000611ee66016836118ca565b9150611ef182611eb0565b602082019050919050565b60006020820190508181036000830152611f1581611ed9565b9050919050565b7f496e636f727265637420457468657220616d6f756e7400000000000000000000600082015250565b6000611f526016836118ca565b9150611f5d82611f1c565b602082019050919050565b60006020820190508181036000830152611f8181611f45565b9050919050565b7f41737365742054776f206973206e6f7420457468657200000000000000000000600082015250565b6000611fbe6016836118ca565b9150611fc982611f88565b602082019050919050565b60006020820190508181036000830152611fed81611fb1565b9050919050565b600081519050612003816116fb565b92915050565b60006020828403121561201f5761201e611689565b5b600061202d84828501611ff4565b91505092915050565b7f4e6f7420656e6f75676820746f6b656e73000000000000000000000000000000600082015250565b600061206c6011836118ca565b915061207782612036565b602082019050919050565b6000602082019050818103600083015261209b8161205f565b9050919050565b6000819050919050565b60006120c76120c26120bd84611693565b6120a2565b611693565b9050919050565b60006120d9826120ac565b9050919050565b60006120eb826120ce565b9050919050565b6120fb816120e0565b82525050565b600060408201905061211660008301856120f2565b6121236020830184611ccd565b9392505050565b600060608201905061213f600083018661186a565b61214c60208301856120f2565b6121596040830184611ccd565b949350505050565b7f496e76616c696420617373657420747970650000000000000000000000000000600082015250565b60006121976012836118ca565b91506121a282612161565b602082019050919050565b600060208201905081810360008301526121c68161218a565b9050919050565b60006080820190506121e26000830187611ccd565b6121ef6020830186611ccd565b6121fc6040830185611ccd565b6122096060830184611ccd565b9594505050505056fea2646970667358221220ea503791351a01a20f29522adb59edc912533590b18230baa9b4094859125cb164736f6c63430008140033",
  "linkReferences": {},
  "deployedLinkReferences": {}
}